:02000004080AE8
:1002000000000320E50D0A081D0C0A08230C0A084B
:10021000290C0A082F0C0A08350C0A0800000000F7
:100220000000000000000000000000003B0C0A0875
:10023000490C0A0800000000570C0A08650C0A085F
:10024000350E0A08350E0A08350E0A08350E0A085A
:10025000350E0A08350E0A08350E0A08350E0A084A
:10026000350E0A08350E0A08350E0A08350E0A083A
:10027000350E0A08350E0A08350E0A08350E0A082A
:10028000350E0A08350E0A08350E0A08350E0A081A
:10029000350E0A08350E0A08350E0A08350E0A080A
:1002A000350E0A08350E0A08350E0A08350E0A08FA
:1002B000350E0A08350E0A08350E0A08350E0A08EA
:1002C000350E0A08350E0A08350E0A08350E0A08DA
:1002D000350E0A08350E0A08350E0A08350E0A08CA
:1002E000350E0A08350E0A08350E0A08350E0A08BA
:1002F000350E0A08350E0A08350E0A08350E0A08AA
:10030000350E0A08350E0A08350E0A08350E0A0899
:10031000710C0A08350E0A08350E0A08350E0A084F
:10032000350E0A08350E0A08350E0A08350E0A0879
:10033000350E0A08350E0A08350E0A08350E0A0869
:10034000350E0A08350E0A08350E0A08350E0A0859
:10035000350E0A08350E0A08350E0A08350E0A0849
:10036000350E0A08350E0A08350E0A08350E0A0839
:10037000350E0A08350E0A08350E0A08350E0A0829
:10038000350E0A08350E0A08350E0A08350E0A0819
:10039000350E0A08350E0A08350E0A08350E0A0809
:0C03A000350E0A08350E0A08350E0A0852
:1003AC0010B5054C237833B9044B13B10448AFF3A3
:1003BC0000800123237010BD0C0000200000000001
:1003CC00A8340A0808B5034B1BB103490348AFF323
:1003DC00008008BD0000000010000020A8340A08AE
:1003EC0053B94AB9002908BF00281CBF4FF0FF3190
:1003FC004FF0FF3000F074B9ADF1080C6DE904CE8C
:10040C0000F006F8DDF804E0DDE9022304B07047E3
:10041C002DE9F047089D04468E46002B4DD18A42AB
:10042C00944669D9B2FA82F252B101FA02F3C2F1DE
:10043C00200120FA01F10CFA02FC41EA030E94406F
:10044C004FEA1C48210CBEFBF8F61FFA8CF708FB90
:10045C0016E341EA034306FB07F199420AD91CEB68
:10046C00030306F1FF3080F01F81994240F21C819A
:10047C00023E63445B1AA4B2B3FBF8F008FB1033E2
:10048C0044EA034400FB07F7A7420AD91CEB040417
:10049C0000F1FF3380F00A81A74240F207816444E7
:1004AC00023840EA0640E41B00261DB1D44000236C
:1004BC00C5E900433146BDE8F0878B4209D9002DD0
:1004CC0000F0EF800026C5E9000130463146BDE85A
:1004DC00F087B3FA83F6002E4AD18B4202D38242C4
:1004EC0000F2F980841A61EB030301209E46002D73
:1004FC00E0D0C5E9004EDDE702B9FFDEB2FA82F2C8
:10050C00002A40F09280A1EB0C014FEA1C471FFA25
:10051C008CFE0126200CB1FBF7F307FB131140EA0C
:10052C0001410EFB03F0884208D91CEB010103F1D9
:10053C00FF3802D2884200F2CB804346091AA4B29B
:10054C00B1FBF7F007FB101144EA01440EFB00FE6F
:10055C00A64508D91CEB040400F1FF3102D2A645D4
:10056C0000F2BB800846A4EB0E0440EA03409CE773
:10057C00C6F12007B34022FA07FC4CEA030C20FA20
:10058C0007F401FA06F31C43F9404FEA1C4900FA40
:10059C0006F3B1FBF9F8200C1FFA8CFE09FB1811BD
:1005AC0040EA014108FB0EF0884202FA06F20BD930
:1005BC001CEB010108F1FF3A80F08880884240F280
:1005CC008580A8F102086144091AA4B2B1FBF9F0C4
:1005DC0009FB101144EA014100FB0EFE8E4508D9BF
:1005EC001CEB010100F1FF346CD28E456AD9023844
:1005FC00614440EA0840A0FB0294A1EB0E01A14229
:10060C00C846A64656D353D05DB1B3EB080261EB96
:10061C000E0101FA07F722FA06F3F1401F43C5E970
:10062C00007100263146BDE8F087C2F12003D840A6
:10063C000CFA02FC21FA03F3914001434FEA1C47E8
:10064C001FFA8CFEB3FBF7F007FB10360B0C43EADA
:10065C00064300FB0EF69E4204FA02F408D91CEB8A
:10066C00030300F1FF382FD29E422DD90238634488
:10067C009B1B89B2B3FBF7F607FB163341EA034128
:10068C0006FB0EF38B4208D91CEB010106F1FF3877
:10069C0016D28B4214D9023E6144C91A46EA00466E
:1006AC0038E72E46284605E70646E3E61846F8E600
:1006BC004B45A9D2B9EB020864EB0C0E0138A3E749
:1006CC004646EAE7204694E74046D1E7D0467BE72A
:1006DC00023B614432E7304609E76444023842E7A2
:1006EC00704700BF80B400AFBFF34F8F00BF064B05
:1006FC00DB6803F4E0620449044B1343CB60BFF3A3
:10070C004F8F00BF00BFFDE700ED00E00400FA05CD
:10071C0080B483B000AF7860044B63221A7000BFC2
:10072C000C37BD465DF8047B704700BF2A000020E3
:10073C0080B582B000AF7860396000F077FF3A681E
:10074C007968044801F0ECFE00F084FF00BF083724
:10075C00BD4680BD2C00002080B500AF00210020DC
:10076C00FFF7E6FF00210120FFF7E2FFFFF7BAFFDA
:10077C0080B500AF01220121134800F03DFF4FF47A
:10078C00FA7000F0C5FB002201210F4800F034FF85
:10079C004FF4FA7000F0BCFB0C4B1B78632B11D19F
:1007AC000A4B00221A700A4B1B78012B05D1084BFF
:1007BC005B78052B01D1FFF7CFFF022204490548D6
:1007CC0001F015FF00BF80BD000402402A0000208C
:1007DC00280000204C00002080B58CB000AF07F141
:1007EC001C0300221A605A609A60DA601A610023B6
:1007FC00BB61844B1B6B834A43F004031363814B33
:10080C001B6B03F00403BB61BB6900237B617D4B55
:10081C001B6B7C4A43F0800313637A4B1B6B03F016
:10082C0080037B617B6900233B61764B1B6B754AB4
:10083C0043F001031363734B1B6B03F001033B6128
:10084C003B690023FB606F4B1B6B6E4A43F002034A
:10085C0013636C4B1B6B03F00203FB60FB68002300
:10086C00BB60684B1B6B674A43F008031363654B13
:10087C001B6B03F00803BB60BB6800237B60614B00
:10088C001B6B604A43F0400313635E4B1B6B03F01E
:10089C0040037B607B68002244F281015A4800F0DF
:1008AC00ABFE00224021594800F0A6FE4FF4005345
:1008BC00FB614FF488133B6200237B6207F11C033E
:1008CC001946534800F0ECFC3223FB6102233B62D7
:1008DC0000237B620323BB620B23FB6207F11C0327
:1008EC0019464B4800F0DCFC8623FB6102233B627B
:1008FC0000237B620323BB620B23FB6207F11C0307
:10090C001946444800F0CCFC44F28103FB610123FE
:10091C003B6200237B620023BB6207F11C03194678
:10092C00394800F0BDFC4FF40053FB6102233B62DD
:10093C0000237B620323BB620B23FB6207F11C03C6
:10094C001946314800F0ACFC4FF44073FB610223B4
:10095C003B6200237B620323BB620723FB6207F12C
:10096C001C0319462C4800F09BFC4023FB6101231F
:10097C003B6200237B620023BB6207F11C03194618
:10098C00224800F08DFC8023FB6100233B62002396
:10099C007B6207F11C0319461C4800F081FC4FF4E4
:1009AC00E853FB6102233B6200237B620323BB629F
:1009BC000A23FB6207F11C031946164800F070FC71
:1009CC004FF40073FB6100233B6200237B6207F151
:1009DC001C0319460F4800F063FC4FF42053FB61D5
:1009EC0002233B6200237B620323BB620B23FB626B
:1009FC0007F11C031946054800F052FC00BF3037C4
:100A0C00BD4680BD00380240000402400018024080
:100A1C000008024000000240000C024080B500AF0C
:100A2C0062B600BF00F002FA00F012F8FFF7D4FE35
:100A3C0000F076F800F036F902220349034801F081
:100A4C00D6FDFFF795FEFCE7280000204C000020A7
:100A5C0080B594B000AF07F1200330220021184676
:100A6C0002F014FD07F10C0300221A605A609A6020
:100A7C00DA601A610023BB60244B1B6C234A43F0E1
:100A8C0080531364214B1B6C03F08053BB60BB6819
:100A9C0000237B601E4B1B6823F440431C4A43F429
:100AAC00804313601A4B1B6803F440437B607B68E4
:100ABC000A233B620123FB6210233B6301237B630C
:100ACC000023BB6307F12003184600F0D7FD034653
:100ADC00002B01D000F01EF80F23FB6000233B61BC
:100AEC0000237B614FF48053BB610023FB6107F152
:100AFC000C030021184601F039F80346002B01D0F5
:100B0C0000F008F800BF5037BD4680BD00380240E9
:100B1C000070004080B400AF72B600BFFEE700006A
:100B2C0080B500AF0F4B104A1A600E4B00225A6072
:100B3C000C4B7F229A600B4BFF22DA60094B002290
:100B4C001A61084B00225A61064B00229A61054833
:100B5C0001F0ECFB0346002B01D0FFF7DBFF00BFDD
:100B6C0080BD00BF2C0000200028004080B58EB056
:100B7C0000AF786007F1080330220021184602F01C
:100B8C0085FC7B681B680C4A934211D12023BB6007
:100B9C004FF400733B6307F10803184601F006FAA3
:100BAC000346002B01D0FFF7B5FF044B01221A605E
:100BBC0000BF3837BD4680BD002800403C0E474280
:100BCC0080B483B000AF00237B60104B5B6C0F4A8A
:100BDC0043F4804353640D4B5B6C03F480437B60A4
:100BEC007B6800233B60094B1B6C084A43F0805325
:100BFC001364064B1B6C03F080533B603B6800BFD7
:100C0C000C37BD465DF8047B704700BF00380240CE
:100C1C0080B400AFFEE780B400AFFEE780B400AF55
:100C2C00FEE780B400AFFEE780B400AFFEE780B40F
:100C3C0000AF00BFBD465DF8047B704780B400AFC9
:100C4C0000BFBD465DF8047B704780B400AF00BFA9
:100C5C00BD465DF8047B704780B500AF00F038F9F5
:100C6C0000BF80BD80B500AF024801F0F1FC00BFB1
:100C7C0080BD00BF4C00002080B400AF074BD3F800
:100C8C008830064A43F47003C2F88830034B044A98
:100C9C009A6000BFBD465DF8047B704700ED00E034
:100CAC0000020A0880B500AF114B124A1A60104BB3
:100CBC004FF4E1325A600E4B00229A600C4B00222A
:100CCC00DA600B4B00221A61094B0C225A61084B5B
:100CDC0000229A61064B0022DA61054801F03AFCC9
:100CEC000346002B01D0FFF715FF00BF80BD00BFEE
:100CFC004C000020004C004080B58AB000AF7860FA
:100D0C0007F1140300221A605A609A60DA601A61C3
:100D1C007B681B682C4A934252D100233B612B4BBE
:100D2C001B6C2A4A43F400231364284B1B6C03F4FA
:100D3C0000233B613B690023FB60244B1B6B234A64
:100D4C0043F001031363214B1B6B03F00103FB60A6
:100D5C00FB680023BB601D4B1B6B1C4A43F0040358
:100D6C0013631A4B1B6B03F00403BB60BB680123BA
:100D7C007B610223BB610023FB6103233B620823DD
:100D8C007B6207F114031946114800F089FA4FF4FD
:100D9C0000637B610223BB610023FB6103233B6285
:100DAC0008237B6207F1140319460A4800F078FA0D
:100DBC0000220021342000F0AAF9342000F0C3F9FD
:100DCC0000BF2837BD4680BD004C004000380240B3
:100DDC000000024000080240DFF834D00D480E49F4
:100DEC000E4A002302E0D458C4500433C4188C4279
:100DFC00F9D30B4A0B4C002301E013600432A242DE
:100E0C00FBD3FFF739FF02F01DFBFFF707FE70471E
:100E1C0000000320000000200C000020E8340A0829
:100E2C000C00002094000020FEE7000080B500AF0D
:100E3C000E4B1B680D4A43F4007313600B4B1B687D
:100E4C000A4A43F480631360084B1B68074A43F457
:100E5C0080731360032000F04FF9002000F008F8B5
:100E6C00FFF7AEFE0023184680BD00BF003C0240D9
:100E7C0080B582B000AF7860124B1A68124B1B78A9
:100E8C0019464FF47A73B3FBF1F3B2FBF3F3184644
:100E9C0000F067F90346002B01D001230EE07B68BC
:100EAC000F2B0AD8002279684FF0FF3000F02FF991
:100EBC00064A7B681360002300E0012318460837BC
:100ECC00BD4680BD0000002008000020040000206A
:100EDC0080B400AF064B1B781A46064B1B681344B4
:100EEC00044A136000BFBD465DF8047B704700BF29
:100EFC00080000209000002080B400AF034B1B685A
:100F0C001846BD465DF8047B704700BF900000207A
:100F1C0080B584B000AF7860FFF7EEFFB8607B68F7
:100F2C00FB60FB68B3F1FF3F05D00A4B1B781A46F8
:100F3C00FB681344FB6000BFFFF7DEFF0246BB6893
:100F4C00D31AFA689A42F7D800BF00BF1037BD46D3
:100F5C0080BD00BF0800002080B485B000AF786071
:100F6C007B6803F00703FB600C4BDB68BB60BA6863
:100F7C004FF6FF031340BB60FB681A02BB681343B8
:100F8C0043F0BF6343F40033BB60044ABB68D360D7
:100F9C0000BF1437BD465DF8047B704700ED00E0E0
:100FAC0080B400AF044BDB681B0A03F00703184640
:100FBC00BD465DF8047B704700ED00E080B483B063
:100FCC0000AF0346FB7197F90730002B0BDBFB7965
:100FDC0003F01F02074997F907305B09012000FA5B
:100FEC0002F241F8232000BF0C37BD465DF8047BAC
:100FFC00704700BF00E100E080B483B000AF03464F
:10100C003960FB7197F90730002B0ADB3B68DAB2C9
:10101C000C4997F907301201D2B20B4483F8002324
:10102C000AE03B68DAB20849FB7903F00F03043B92
:10103C001201D2B20B441A7600BF0C37BD465DF8D4
:10104C00047B704700E100E000ED00E080B489B063
:10105C0000AFF860B9607A60FB6803F00703FB61CE
:10106C00FB69C3F10703042B28BF0423BB61FB6995
:10107C000433062B02D9FB69033B00E000237B61A0
:10108C004FF0FF32BB6902FA03F3DA43BB681A4034
:10109C007B699A404FF0FF317B6901FA03F3D94326
:1010AC007B680B40134318462437BD465DF8047B20
:1010BC007047000080B582B000AF78607B68013B60
:1010CC00B3F1807F01D301230FE00A4A7B68013B17
:1010DC0053600F214FF0FF30FFF78EFF054B0022BE
:1010EC009A60044B07221A60002318460837BD4645
:1010FC0080BD00BF10E000E080B582B000AF78602A
:10110C007868FFF729FF00BF0837BD4680BD80B562
:10111C0086B000AF0346B9607A60FB7300237B6135
:10112C00FFF73EFF78617A68B9687869FFF78EFF40
:10113C00024697F90F3011461846FFF75DFF00BFC6
:10114C001837BD4680BD80B582B000AF0346FB7139
:10115C0097F907301846FFF731FF00BF0837BD4637
:10116C0080BD80B582B000AF78607868FFF7A2FFD1
:10117C00034618460837BD4680BD80B584B000AF25
:10118C0078607B689B6DFB60FFF7B6FEB8607B6890
:10119C0093F83530DBB2022B08D07B6880225A657D
:1011AC007B68002283F83420012352E07B681B68A3
:1011BC001A687B681B6822F016021A607B681B6831
:1011CC005A697B681B6822F080025A617B681B6C31
:1011DC00002B03D17B689B6C002B07D07B681B68B2
:1011EC001A687B681B6822F008021A607B681B680F
:1011FC001A687B681B6822F001021A6013E0FFF783
:10120C007BFE0246BB68D31A052B0CD97B682022C7
:10121C005A657B68032283F835207B68002283F8AB
:10122C003420032315E07B681B681B6803F0010363
:10123C00002BE4D17B68DB6D3F229A40FB689A60FF
:10124C007B68012283F835207B68002283F83420E8
:10125C00002318461037BD4680BD80B483B000AF64
:10126C0078607B6893F83530DBB2022B04D07B6856
:10127C0080225A6501230CE07B68052283F8352017
:10128C007B681B681A687B681B6822F001021A6075
:10129C00002318460C37BD465DF8047B70470000F0
:1012AC0080B489B000AF7860396000237B61002383
:1012BC003B610023BB610023FB6177E10122FB69E9
:1012CC0002FA03F37B613B681B687A6913403B614C
:1012DC003A697B699A4240F066813B685B6803F02F
:1012EC000303012B05D03B685B6803F00303022B5F
:1012FC0030D17B689B68BB61FB695B00032202FAFF
:10130C0003F3DB43BA691340BB613B68DA68FB69E2
:10131C005B0002FA03F3BA691343BB617B68BA69D9
:10132C009A607B685B68BB610122FB6902FA03F37C
:10133C00DB43BA691340BB613B685B681B0903F074
:10134C000102FB6902FA03F3BA691343BB617B68C0
:10135C00BA695A603B685B6803F00303032B17D030
:10136C007B68DB68BB61FB695B00032202FA03F359
:10137C00DB43BA691340BB613B689A68FB695B004D
:10138C0002FA03F3BA691343BB617B68BA69DA608A
:10139C003B685B6803F00303022B23D1FB69DA087B
:1013AC007B68083253F82230BB61FB6903F00703FA
:1013BC009B000F2202FA03F3DB43BA691340BB61B3
:1013CC003B681A69FB6903F007039B0002FA03F3FD
:1013DC00BA691343BB61FB69DA087B680832B969E7
:1013EC0043F822107B681B68BB61FB695B0003221E
:1013FC0002FA03F3DB43BA691340BB613B685B68D9
:10140C0003F00302FB695B0002FA03F3BA691343AE
:10141C00BB617B68BA691A603B685B6803F4403354
:10142C00002B00F0C0800023FB60664B5B6C654AB0
:10143C0043F480435364634B5B6C03F48043FB6065
:10144C00FB68614AFB699B08023352F82330BB618D
:10145C00FB6903F003039B000F2202FA03F3DB4347
:10146C00BA691340BB617B68584A934237D07B689A
:10147C00574A934231D07B68564A93422BD07B68B3
:10148C00554A934225D07B68544A93421FD07B68BF
:10149C00534A934219D07B68524A934213D07B68CB
:1014AC00514A93420DD07B68504A934207D07B68D7
:1014BC004F4A934201D1092312E00A2310E008237A
:1014CC000EE007230CE006230AE0052308E00423C2
:1014DC0006E0032304E0022302E0012300E00023E2
:1014EC00FA6902F0030292009340BA691343BB619C
:1014FC003549FB699B080233BA6941F823203D4BFF
:10150C009B68BB613B69DB43BA691340BB613B68B9
:10151C005B6803F48013002B03D0BA693B69134357
:10152C00BB61344ABB699360324BDB68BB613B697E
:10153C00DB43BA691340BB613B685B6803F400137F
:10154C00002B03D0BA693B691343BB61294ABB69C1
:10155C00D360284B5B68BB613B69DB43BA691340C2
:10156C00BB613B685B6803F40033002B03D0BA69A2
:10157C003B691343BB611F4ABB6953601D4B1B681E
:10158C00BB613B69DB43BA691340BB613B685B6879
:10159C0003F48033002B03D0BA693B691343BB615E
:1015AC00144ABB691360FB690133FB61FB690F2BA8
:1015BC007FF684AE00BF00BF2437BD465DF8047BC8
:1015CC00704700BF00380240003801400000024064
:1015DC000004024000080240000C024000100240CF
:1015EC000014024000180240001C0240002002407F
:1015FC0000240240003C014080B483B000AF78600E
:10160C000B467B8013467B707B78002B03D07A884B
:10161C007B689A6103E07B881A047B689A6100BF3F
:10162C000C37BD465DF8047B7047000080B483B076
:10163C0000AF064B01221A60054B1B687B607B6870
:10164C0000BF0C37BD465DF8047B704720000E428E
:10165C000070004080B483B000AF064B00221A60CB
:10166C00054B1B687B607B6800BF0C37BD465DF883
:10167C00047B704720000E420070004080B586B09D
:10168C0000AF78607B68002B01D1012367E27B6897
:10169C001B6803F00103002B75D0884B9B6803F08B
:1016AC000C03042B0CD0854B9B6803F00C03082B0C
:1016BC0012D1824B5B6803F48003B3F5800F0BD11E
:1016CC007E4B1B6803F40033002B5BD07B685B689C
:1016DC00002B57D1012342E27B685B68B3F5803F56
:1016EC0006D1764B1B68754A43F4803313601DE0BA
:1016FC007B685B68B3F5A02F0CD1704B1B686F4AED
:10170C0043F4802313606D4B1B686C4A43F48033A5
:10171C0013600BE0694B1B68684A23F48033136039
:10172C00664B1B68654A23F4802313607B685B68F7
:10173C00002B13D0FFF7E0FB386108E0FFF7DCFB70
:10174C0002463B69D31A642B01D9032307E25B4B96
:10175C001B6803F40033002BF0D014E0FFF7CCFB34
:10176C00386108E0FFF7C8FB02463B69D31A642BCB
:10177C0001D90323F3E1514B1B6803F40033002B15
:10178C00F0D100E000BF7B681B6803F00203002B64
:10179C0063D04A4B9B6803F00C03002B0BD0474BD8
:1017AC009B6803F00C03082B1CD1444B5B6803F4BF
:1017BC008003002B16D1414B1B6803F00203002B56
:1017CC0005D07B68DB68012B01D00123C7E13B4BC3
:1017DC001B6823F0F8027B681B69DB003749134355
:1017EC000B603AE07B68DB68002B20D0344B012285
:1017FC001A60FFF781FB386108E0FFF77DFB0246BA
:10180C003B69D31A022B01D90323A8E12B4B1B688C
:10181C0003F00203002BF0D0284B1B6823F0F802D6
:10182C007B681B69DB00254913430B6015E0244BD7
:10183C0000221A60FFF760FB386108E0FFF75CFBE1
:10184C0002463B69D31A022B01D9032387E11B4BB8
:10185C001B6803F00203002BF0D17B681B6803F0BC
:10186C000803002B36D07B685B69002B16D0154B18
:10187C0001221A60FFF740FB386108E0FFF73CFBE0
:10188C0002463B69D31A022B01D9032367E10B4BA8
:10189C005B6F03F00203002BF0D01BE0094B00221E
:1018AC001A60FFF729FB38610EE0FFF725FB0246B3
:1018BC003B69D31A022B07D9032350E100380240AD
:1018CC0000004742800E4742884B5B6F03F00203D7
:1018DC00002BEAD17B681B6803F00403002B00F09B
:1018EC0097800023FB75814B1B6C03F08053002BFE
:1018FC000FD10023BB607D4B1B6C7C4A43F08053A3
:10190C0013647A4B1B6C03F08053BB60BB680123E0
:10191C00FB75774B1B6803F48073002B18D1744B49
:10192C001B68734A43F480731360FFF7E5FA386160
:10193C0008E0FFF7E1FA02463B69D31A022B01D902
:10194C0003230CE16A4B1B6803F48073002BF0D06B
:10195C007B689B68012B06D1644B1B6F634A43F079
:10196C00010313671CE07B689B68052B0CD15F4B54
:10197C001B6F5E4A43F0040313675C4B1B6F5B4A9F
:10198C0043F0010313670BE0584B1B6F574A23F0CE
:10199C0001031367554B1B6F544A23F00403136761
:1019AC007B689B68002B15D0FFF7A6FA38610AE01C
:1019BC00FFF7A2FA02463B69D31A41F288329342EE
:1019CC0001D90323CBE0494B1B6F03F00203002B1F
:1019DC00EED014E0FFF790FA38610AE0FFF78CFACA
:1019EC0002463B69D31A41F28832934201D9032350
:1019FC00B5E03E4B1B6F03F00203002BEED1FB7DD9
:101A0C00012B05D1394B1B6C384A23F080531364DE
:101A1C007B689B69002B00F0A180344B9B6803F022
:101A2C000C03082B5CD07B689B69022B41D1314B9A
:101A3C0000221A60FFF760FA386108E0FFF75CFAE1
:101A4C0002463B69D31A022B01D9032387E0274BAB
:101A5C001B6803F00073002BF0D17B68DA697B689C
:101A6C001B6A1A437B685B6A9B011A437B689B6AFF
:101A7C005B08013B1B041A437B68DB6A1B061B4992
:101A8C0013434B601B4B01221A60FFF735FA386188
:101A9C0008E0FFF731FA02463B69D31A022B01D951
:101AAC0003235CE0114B1B6803F00073002BF0D098
:101ABC0054E0104B00221A60FFF71EFA386108E060
:101ACC00FFF71AFA02463B69D31A022B01D90323FA
:101ADC0045E0064B1B6803F00073002BF0D13DE092
:101AEC007B689B69012B07D1012338E00038024049
:101AFC0000700040600047421B4B5B68FB607B68DA
:101B0C009B69012B28D0FB6803F480027B68DB699E
:101B1C009A4221D1FB6803F03F027B681B6A9A4210
:101B2C001AD1FA6847F6C07313407A68526A920168
:101B3C00934211D1FB6803F440327B689B6A5B08CB
:101B4C00013B1B049A4207D1FB6803F070627B686F
:101B5C00DB6A1B069A4201D0012300E000231846E1
:101B6C001837BD4680BD00BF0038024080B584B038
:101B7C0000AF786039607B68002B01D10123CCE089
:101B8C00684B1B6803F00F033A689A420CD9654BFB
:101B9C003A68D2B21A70634B1B6803F00F033A68B1
:101BAC009A4201D00123B8E07B681B6803F0020362
:101BBC00002B20D07B681B6803F00403002B05D09E
:101BCC00594B9B68584A43F4E05393607B681B68FD
:101BDC0003F00803002B05D0534B9B68524A43F487
:101BEC0060439360504B9B6823F0F0027B689B68CA
:101BFC004D4913438B607B681B6803F00103002B7A
:101C0C0044D07B685B68012B07D1474B1B6803F4FE
:101C1C000033002B19D101237FE07B685B68022B1A
:101C2C0003D07B685B68032B07D13F4B1B6803F029
:101C3C000073002B09D101236FE03B4B1B6803F0B1
:101C4C000203002B01D1012367E0374B9B6823F083
:101C5C0003027B685B68344913438B60FFF74CF9D4
:101C6C00F8600AE0FFF748F90246FB68D31A41F224
:101C7C008832934201D903234FE02B4B9B6803F02E
:101C8C000C027B685B689B009A42EBD1254B1B686E
:101C9C0003F00F033A689A420CD2224B3A68D2B244
:101CAC001A70204B1B6803F00F033A689A4201D05C
:101CBC00012332E07B681B6803F00403002B08D07F
:101CCC00194B9B6823F4E0527B68DB68164913437D
:101CDC008B607B681B6803F00803002B09D0124B48
:101CEC009B6823F460427B681B69DB000E4913433D
:101CFC008B6000F021F802460B4B9B681B0903F02C
:101D0C000F030A49CB5C22FA03F3094A1360094B0F
:101D1C001B681846FFF7ACF8002318461037BD4671
:101D2C0080BD00BF003C024000380240C0340A08AD
:101D3C0000000020040000202DE9B04F94B000AF4B
:101D4C0000237B640023FB6400233B640023BB64FF
:101D5C00794B9B6803F00C03082B0DD0082B00F279
:101D6C00E180002B02D0042B03D0DBE0734BBB646F
:101D7C00DBE0734BBB64D8E06F4B5B6803F03F0355
:101D8C007B646D4B5B6803F48003002B63D06A4B60
:101D9C005B689B090022BB63FA63BB6BC3F308034C
:101DAC003B6300237B63D7E90C4522462B464FF05F
:101DBC0000004FF00001590141EAD2615001024686
:101DCC000B462146511A3961294663EB01037B61AD
:101DDC004FF000024FF00003D7E904AB59468B01DA
:101DEC00514643EA916351468A015146B2EB0108D0
:101DFC00594663EB01094FF000024FF000034FEA24
:101E0C00C90343EA58734FEAC802904699462346E1
:101E1C0018EB0303BB602B4649EB0303FB604FF04D
:101E2C0000024FF00003D7E9024529464B02214638
:101E3C0043EAD15321464A02104619467B6C0022D4
:101E4C00BB62FA62D7E90A23FEF7CAFA02460B46CE
:101E5C001346FB6458E0384B5B689B09002218461C
:101E6C001146C0F308033B6200237B62D7E9088963
:101E7C0042464B464FF000004FF00001590141EA39
:101E8C00D261500102460B464146B2EB010A49466B
:101E9C0063EB010B4FF000024FF000034FEA8B1382
:101EAC0043EA9A634FEA8A12B2EB0A0463EB0B051E
:101EBC004FF000024FF00003EB0043EA5473E200D2
:101ECC0014461D464346E3183B604B4645EB030363
:101EDC007B604FF000024FF00003D7E90045294624
:101EEC008B02214643EA915321468A021046194639
:101EFC007B6C0022BB61FA61D7E90623FEF770FA0E
:101F0C0002460B461346FB640B4B5B681B0C03F041
:101F1C00030301335B003B64FA6C3B6CB2FBF3F3E1
:101F2C00BB6402E0054BBB6400BFBB6C184650376A
:101F3C00BD46BDE8B08F00BF003802400024F4005D
:101F4C0000127A0080B400AF034B1B681846BD46E4
:101F5C005DF8047B704700BF0000002080B500AF27
:101F6C00FFF7F0FF0246054B9B689B0A03F0070343
:101F7C000349CB5C22FA03F3184680BD00380240BB
:101F8C00D0340A0880B500AFFFF7DCFF0246054BE2
:101F9C009B685B0B03F007030349CB5C22FA03F34A
:101FAC00184680BD00380240D0340A0880B586B08F
:101FBC0000AF786000237B6100233B617B681B686A
:101FCC0003F00103002B0BD17B681B6803F00203A9
:101FDC00002B05D17B681B6803F04003002B75D0E8
:101FEC00914B00221A60FEF787FF786108E0FEF73C
:101FFC0083FF02467B69D31A022B01D9032389E1A3
:10200C008A4B1B6803F00063002BF0D17B681B68C4
:10201C0003F00103002B09D07B685B689A017B6895
:10202C009B681B0781491343C1F884307B681B688C
:10203C0003F00203002B1FD07C4BD3F884301B0F12
:10204C0003F007033B617B685B689A017B68DB6884
:10205C001B061A433B691B0774491343C1F88430B0
:10206C00724BD3F88C3023F01F027B68DB69013B89
:10207C006E491343C1F88C307B681B6803F0400336
:10208C00002B0DD07B685B689A017B68DB681B06B4
:10209C001A437B689B681B0764491343C1F884305F
:1020AC00614B01221A60FEF727FF786108E0FEF70A
:1020BC0023FF02467B69D31A022B01D9032329E1A2
:1020CC005A4B1B6803F00063002BF0D07B681B6835
:1020DC0003F00403002B05D17B681B6803F0080395
:1020EC00002B79D0524B00221A60FEF705FF786165
:1020FC0008E0FEF701FF02467B69D31A022B01D9D7
:10210C00032307E1494B1B6803F00053B3F1005F55
:10211C00EFD07B681B6803F00403002B20D0434BEB
:10212C00D3F888301B0F03F007033B617B681B69F6
:10213C009A017B685B691B061A433B691B073B4989
:10214C001343C1F88830394BD3F88C3023F4F85250
:10215C007B681B6A013B1B0234491343C1F88C306A
:10216C007B681B6803F00803002B1ED02F4BD3F8A1
:10217C0088301B0E03F00F033B617B681B699A01CF
:10218C003B691B061A437B689B691B072749134352
:10219C00C1F88830254BD3F88C3023F440327B685F
:1021AC005B6A22491343C1F88C30214B01221A601F
:1021BC00FEF7A2FE786108E0FEF79EFE02467B6900
:1021CC00D31A022B01D90323A4E0184B1B6803F08C
:1021DC000053B3F1005FEFD17B681B6803F0200361
:1021EC00002B00F08B800023FB60104B1B6C0F4A04
:1021FC0043F0805313640D4B1B6C03F08053FB6056
:10220C00FB680C4B1B680B4A43F480731360FEF79E
:10221C0073FE786110E0FEF76FFE02467B69D31AFD
:10222C00022B09D9032375E06800474200380240AD
:10223C007000474200700040384B1B6803F48073F9
:10224C00002BE8D0364B1B6F03F440733B613B69AA
:10225C00002B2FD07B689B6A03F440733A699A4237
:10226C0028D02F4B1B6F23F440733B612D4B012265
:10227C001A602C4B00221A60294A3B691367284BC1
:10228C001B6F03F00103012B14D1FEF735FE7861AF
:10229C000AE0FEF731FE02467B69D31A41F288321E
:1022AC00934201D9032335E01D4B1B6F03F002034E
:1022BC00002BEED07B689B6A03F44073B3F5407F30
:1022CC000DD1174B9B6823F4F8127B689B6A23F0A3
:1022DC00704323F44073124913438B6005E0104B99
:1022EC009B680F4A23F4F81393600D4B1A6F7B68AD
:1022FC009B6AC3F30B030A4913430B677B681B6888
:10230C0003F01003002B04D07B6893F82C20064BB1
:10231C001A60002318461837BD4680BD0070004077
:10232C0000380240400E4742E011474280B584B06D
:10233C0000AF78600123FB737B68002B01D1012374
:10234C0066E07B685B7FDBB2002B05D17B680022EB
:10235C001A777868FEF70AFC7B6802225A777B684A
:10236C001B68CA225A627B681B6853225A627868BF
:10237C0000F07AF80346FB73FB7B002B2CD17B68B7
:10238C001B689B687A68126823F4E00323F040030F
:10239C0093607B681B6899687B685A687B681B69CB
:1023AC001A437B685B691A437B681B680A439A6013
:1023BC007B681B687A68D2681A617B681B6819692C
:1023CC007B689B681A047B681B680A431A617868EF
:1023DC0000F081F80346FB73FB7B002B13D17B6869
:1023EC001B681A6C7B681B6822F480221A647B6859
:1023FC001B68196C7B689A697B681B680A431A64B2
:10240C007B6801225A777B681B68FF225A62FB7B30
:10241C0018461037BD4680BD80B584B000AF7860DB
:10242C000023FB607B681B68DA687B681B6822F002
:10243C00A002DA60FEF760FDF86009E0FEF75CFDD3
:10244C000246FB68D31AB3F57A7F01D9032307E060
:10245C007B681B68DB6803F02003002BEED00023A5
:10246C0018461037BD4680BD80B584B000AF78608B
:10247C000023BB600023FB737B681B68DB6803F0E5
:10248C004003002B22D17B681B68DA687B681B68D1
:10249C0042F08002DA60FEF72FFDB8600CE0FEF728
:1024AC002BFD0246BB68D31AB3F57A7F04D97B683F
:1024BC0004225A770123FB737B681B68DB6803F0EB
:1024CC004003002B02D1FB7B012BE8D1FB7B184690
:1024DC001037BD4680BD80B584B000AF7860002356
:1024EC00FB737B681B68DA687B681B6822F08002D0
:1024FC00DA607B681B689B6803F02003002B0AD111
:10250C007868FFF789FF0346002B04D07B68042210
:10251C005A770123FB73FB7B18461037BD4680BDF1
:10252C0080B487B000AFF860B9607A6000237B613B
:10253C00FB681B6850337B61BB689B007A69134452
:10254C007B617B697A681A6000BF1C37BD465DF8F9
:10255C00047B704780B582B000AF78607B68002B3D
:10256C0001D101233FE07B6893F83D30DBB2002BB7
:10257C0006D17B68002283F83C207868FEF7BCFB10
:10258C007B68242283F83D207B681B68DA687B68B3
:10259C001B6822F40052DA60786800F0DFFC7B687C
:1025AC001B681A697B681B6822F490421A617B686D
:1025BC001B685A697B681B6822F02A025A617B6887
:1025CC001B68DA687B681B6842F40052DA607B682F
:1025DC0000221A647B68202283F83D207B6820222D
:1025EC0083F83E20002318460837BD4680BD80B5D1
:1025FC0084B000AFF860B9601346FB80FB6893F8B9
:10260C003E30DBB2202B1DD1BB68002B02D0FB88E7
:10261C00002B01D1012316E0FB6893F83C30012B11
:10262C0001D102230FE0FB68012283F83C20FB68F8
:10263C0000221A63FB881A46B968F86800F0B6FAEB
:10264C00034600E0022318461037BD4680BD00004B
:10265C0080B5BAB000AF78607B681B681B68C7F8A0
:10266C00E4307B681B68DB68C7F8E0307B681B686C
:10267C005B69C7F8DC300023C7F8D8300023C7F8F3
:10268C00D430D7F8E43003F00F03C7F8D830D7F8BC
:10269C00D830002B0FD1D7F8E43003F02003002BF7
:1026AC0009D0D7F8E03003F02003002B03D0786872
:1026BC0000F099FB56E2D7F8D830002B00F0DE8002
:1026CC00D7F8DC3003F00103002B06D1D7F8E0304B
:1026DC0003F49073002B00F0D180D7F8E43003F0B2
:1026EC000103002B0BD0D7F8E03003F48073002BE0
:1026FC0005D07B681B6C43F001027B681A64D7F829
:10270C00E43003F00403002B0BD0D7F8DC3003F0DB
:10271C000103002B05D07B681B6C43F002027B6825
:10272C001A64D7F8E43003F00203002B0BD0D7F86F
:10273C00DC3003F00103002B05D07B681B6C43F0ED
:10274C0004027B681A64D7F8E43003F00803002B0A
:10275C0011D0D7F8E03003F02003002B05D1D7F8C7
:10276C00DC3003F00103002B05D07B681B6C43F0BD
:10277C0008027B681A647B681B6C002B00F0ED81EF
:10278C00D7F8E43003F02003002B08D0D7F8E03062
:10279C0003F02003002B02D0786800F024FB7B6848
:1027AC001B685B6903F04003402B0CBF0123002323
:1027BC00DBB2C7F8D4307B681B6C03F00803002B2A
:1027CC0003D1D7F8D430002B4FD0786800F02CFA16
:1027DC007B681B685B6903F04003402B41D17B682D
:1027EC001B681433C7F89C30D7F89C3053E8003F73
:1027FC00C7F89830D7F8983023F04003C7F8D0309A
:10280C007B681B681433D7F8D020C7F8A820C7F80A
:10281C00A430D7F8A410D7F8A82041E80023C7F8B3
:10282C00A030D7F8A030002BD9D17B689B6B002B44
:10283C0013D07B689B6B7D4A1A657B689B6B184633
:10284C00FEF70BFD0346002B16D07B689B6B1B6DB4
:10285C007A68926B104698470EE0786800F090F911
:10286C000AE0786800F08CF906E0786800F088F9E6
:10287C007B6800221A6470E100BF6EE17B681B6B01
:10288C00012B40F04A81D7F8E43003F01003002B01
:10289C0000F04381D7F8E03003F01003002B00F078
:1028AC003C810023BB607B681B681B68BB607B683A
:1028BC001B685B68BB60BB687B681B685B6903F06B
:1028CC004003402B40F0B4807B689B6B1B685B68BB
:1028DC00A7F8BE30B7F8BE30002B00F040817B6803
:1028EC009B8DB7F8BE209A4280F039817B68B7F88F
:1028FC00BE20DA857B689B6BDB69B3F5807F00F0CB
:10290C0088807B681B680C33C7F88830D7F8883010
:10291C0053E8003FC7F88430D7F8843023F4807331
:10292C00C7F8B8307B681B680C33D7F8B820C7F8E9
:10293C009420C7F89030D7F89010D7F8942041E83D
:10294C000023C7F88C30D7F88C30002BD9D17B689A
:10295C001B6814337B677B6F53E8003F3B673B6F0F
:10296C0023F00103C7F8B4307B681B681433D7F825
:10297C00B420C7F88020FB67F96FD7F8802041E8B6
:10298C000023BB67BB6F002BE1D17B681B68143342
:10299C003B663B6E53E8003FFB65FB6D23F0400349
:1029AC00C7F8B0307B681B681433D7F8B020FA66D0
:1029BC00BB66B96EFA6E41E800237B667B6E002B1A
:1029CC00E3D17B68202283F83E207B6800221A63C7
:1029DC007B681B680C33FB64FB6C53E8003FBB64E7
:1029EC00BB6C23F01003C7F8AC307B681B680C334E
:1029FC00D7F8AC20BA657B65796DBA6D41E80023D8
:102A0C003B653B6D002BE3D17B689B6B1846FEF757
:102A1C00B4FB7B689A8D7B68DB8D9BB2D31A9BB21F
:102A2C001946786800F0B6F899E000BFFB2C0A084C
:102A3C007B689A8D7B68DB8D9BB2D31AA7F8CE305E
:102A4C007B68DB8D9BB2002B00F08B80B7F8CE300F
:102A5C00002B00F086807B681B680C33BB63BB6B60
:102A6C0053E8003F7B637B6B23F49073C7F8C8304B
:102A7C007B681B680C33D7F8C8207A643B64396CCC
:102A8C007A6C41E80023FB63FB6B002BE3D17B6882
:102A9C001B6814337B627B6A53E8003F3B623B6AE2
:102AAC0023F00103C7F8C4307B681B681433D7F8D4
:102ABC00C4203A63FB62F96A3A6B41E80023BB62BB
:102ACC00BB6A002BE3D17B68202283F83E207B6815
:102ADC0000221A637B681B680C333B613B6953E82B
:102AEC00003FFB60FB6823F01003C7F8C0307B6825
:102AFC001B680C33D7F8C020FA61BB61B969FA695D
:102B0C0041E800237B617B69002BE3D1B7F8CE3021
:102B1C001946786800F03EF823E0D7F8E43003F06B
:102B2C008003002B09D0D7F8E03003F08003002B92
:102B3C0003D0786800F0EFF814E0D7F8E43003F035
:102B4C004003002B0ED0D7F8E03003F04003002BED
:102B5C0008D0786800F02FF904E000BF02E000BF55
:102B6C0000E000BFE837BD4680BD00BF80B483B035
:102B7C0000AF786000BF0C37BD465DF8047B704732
:102B8C0080B483B000AF786000BF0C37BD465DF8F1
:102B9C00047B704780B483B000AF78600B467B80B9
:102BAC0000BF0C37BD465DF8047B704780B485B020
:102BBC0000AFF860B9601346FB80FB68BA689A6294
:102BCC00FB68FA889A85FB68FA88DA85FB6800222C
:102BDC001A64FB68222283F83E20FB68002283F8EB
:102BEC003C20FB681B69002B07D0FB681B68DA686C
:102BFC00FB681B6842F48072DA60FB681B685A69D8
:102C0C00FB681B6842F001025A61FB681B68DA68BA
:102C1C00FB681B6842F02002DA6000231846143768
:102C2C00BD465DF8047B704780B495B000AF78600A
:102C3C007B681B680C337B637B6B53E8003F3B6307
:102C4C003B6B23F49073FB647B681B680C33FA6C4E
:102C5C003A64FB63F96B3A6C41E80023BB63BB6BD2
:102C6C00002BE5D17B681B6814333B623B6A53E84D
:102C7C00003FFB61FB6923F00103BB647B681B68AD
:102C8C001433BA6CFA62BB62B96AFA6A41E800237F
:102C9C007B627B6A002BE5D17B681B6B012B19D106
:102CAC007B681B680C33FB60FB6853E8003FBB6020
:102CBC00BB6823F010037B647B681B680C337A6C55
:102CCC00BA617B617969BA6941E800233B613B6970
:102CDC00002BE5D17B68202283F83E207B68002204
:102CEC001A6300BF5437BD465DF8047B704780B54E
:102CFC0084B000AF78607B689B6BFB60FB68002244
:102D0C00DA85FB680022DA84F868FFF739FF00BF28
:102D1C001037BD4680BD80B485B000AF78607B684D
:102D2C0093F83D30DBB2212B3ED17B689B68B3F529
:102D3C00805F14D17B681B69002B10D17B681B6AE8
:102D4C00FB60FB681B881A467B681B68C2F3080291
:102D5C005A607B681B6A9A1C7B681A6208E07B6865
:102D6C001B6A591C7A6811621A787B681B685A6056
:102D7C007B68DB8C9BB2013B9BB27A681946D18491
:102D8C00002B0FD17B681B68DA687B681B6822F00C
:102D9C008002DA607B681B68DA687B681B6842F02B
:102DAC004002DA60002300E0022318461437BD46C7
:102DBC005DF8047B704780B582B000AF78607B68AB
:102DCC001B68DA687B681B6822F04002DA607B685B
:102DDC00202283F83D207868FFF7C8FE00231846B0
:102DEC000837BD4680BD80B58CB000AF78607B687D
:102DFC0093F83E30DBB2222B40F0AB807B689B68B3
:102E0C00B3F5805F17D17B681B69002B13D10023AE
:102E1C00FB627B689B6ABB627B681B685B689BB2CE
:102E2C00C3F308039AB2BB6A1A807B689B6A9A1C2C
:102E3C007B689A6226E07B689B6AFB620023BB621C
:102E4C007B689B68B3F5805F07D07B689B68002B21
:102E5C000AD17B681B69002B06D17B681B685B68F9
:102E6C00DAB2FB6A1A7008E07B681B685B68DBB23D
:102E7C0003F07F03DAB2FB6A1A707B689B6A5A1CF8
:102E8C007B689A627B68DB8D9BB2013B9BB27A6854
:102E9C001946D185002B5AD17B681B68DA687B6890
:102EAC001B6822F02002DA607B681B68DA687B689A
:102EBC001B6822F48072DA607B681B685A697B6835
:102ECC001B6822F001025A617B68202283F83E20A5
:102EDC007B681B6B012B35D17B6800221A637B68E6
:102EEC001B680C337B617B6953E8003F3B613B699A
:102EFC0023F010037B627B681B680C337A6A3A629E
:102F0C00FB61F9693A6A41E80023BB61BB69002B9C
:102F1C00E5D17B681B681B6803F01003102B0AD1EA
:102F2C000023FB607B681B681B68FB607B681B686D
:102F3C005B68FB60FB687B689B8D19467868FFF7C4
:102F4C0029FE02E07868FDF7E3FB002302E0002392
:102F5C0000E0022318463037BD4680BD2DE9B04F46
:102F6C00C0B000AFC7F8F400D7F8F4301B681B6989
:102F7C0023F44050D7F8F430D968D7F8F4301A68F5
:102F8C0040EA01031361D7F8F4309A68D7F8F430AB
:102F9C001B691A43D7F8F4305B691A43D7F8F4303D
:102FAC00DB691343C7F8F830D7F8F4301B68DB68DB
:102FBC0023F4164121F00C01D7F8F4301A68D7F835
:102FCC00F8300B43D360D7F8F4301B685B6923F4FB
:102FDC004070D7F8F4309969D7F8F4301A6840EAA1
:102FEC0001035361D7F8F4301A688F4B9A4205D01D
:102FFC00D7F8F4301A688D4B9A4204D1FEF7C2FF11
:10300C00C7F8FC0003E0FEF7A9FFC7F8FC00D7F8EF
:10301C00F430DB69B3F5004F40F00C81D7F8FC308D
:10302C000022C7F8E830C7F8EC20D7E93A45224629
:10303C002B469118B9655B41FB65D7E916232146F0
:10304C0012EB0108294643EB01094FF000024FF047
:10305C0000034FEAC90343EA58734FEAC80290468B
:10306C009946234618EB0303C7F8E0302B4649EB8F
:10307C000303C7F8E430D7F8F4305B680022C7F8D4
:10308C00D830C7F8DC20D7E936120B46DB183B6585
:10309C00134642EB03037B65D7E91423D7E93801C8
:1030AC00FDF79EF902460B46614BA3FB02235B091D
:1030BC001C01D7F8FC300022C7F8D030C7F8D42058
:1030CC00D7E9348942464B469118B9645B41FB649D
:1030DC00D7E91223414612EB010A494643EB010B97
:1030EC004FF000024FF000034FEACB0343EA5A7350
:1030FC004FEACA0292469B4643461AEB0303C7F8B3
:10310C00C8304B464BEB0303C7F8CC30D7F8F43040
:10311C005B680022C7F8C030C7F8C420D7E930126A
:10312C000B46DB183B64134642EB03037B64D7E985
:10313C001023D7E93201FDF753F902460B4611462D
:10314C003B4BA3FB01235B09642202FB03F3CB1A69
:10315C00DB0003F13202364BA3FB02235B095B005D
:10316C0003F4F8731C44D7F8FC300022C7F8B830CD
:10317C00C7F8BC20D7E92E8942464B469118B96353
:10318C005B41FB63D7E90E2341465118396349462D
:10319C004B417B634FF000024FF00003D7E90CABBF
:1031AC005946CB00514643EA51735146CA0010466A
:1031BC001946034642469B18C7F8B0304B460A46A0
:1031CC0042EB0303C7F8B430D7F8F4305B68002245
:1031DC00C7F8A830C7F8AC20D7E92A120B46DB1881
:1031EC00BB62134642EB0303FB62D7E90A23D7E920
:1031FC002C01FDF7F5F802460B460D4BA3FB021311
:10320C005B09642101FB03F3D31ADB003233084A58
:10321C00A2FB03235B0903F00702D7F8F4301B6809
:10322C0022449A6005E100BF0010014000140140E7
:10323C001F85EB51D7F8FC300022C7F8A030C7F837
:10324C00A420D7E9288942464B46911839625B4144
:10325C007B62D7E9082341465418494643EB0105E4
:10326C004FF000024FF00003EB0043EA5473E2000E
:10327C0014461D464346E318C7F898304B4645EBB9
:10328C000303C7F89C30D7F8F4305B680022C7F80A
:10329C009030C7F894204FF000024FF00003D7E9AC
:1032AC00244529468B00214643EA917321468A0026
:1032BC00D7E92601FDF794F802460B46604BA3FBB9
:1032CC0002235B091C01D7F8FC300022C7F88830B8
:1032DC00C7F88C20D7E9228942464B469118B96130
:1032EC005B41FB61D7E906234146511839614946D8
:1032FC004B417B614FF000024FF00003D7E904AB68
:10330C005946CB00514643EA51735146CA00104608
:10331C001946034642469B18C7F880304B460A466E
:10332C0042EB0303C7F88430D7F8F4305B68002213
:10333C00BB67FA674FF000024FF00003D7E91E8914
:10334C0049468B00414643EA917341468A00D7E9CE
:10335C002001FDF745F802460B46394BA3FB02133F
:10336C005B09642101FB03F3D31A1B013233344A8A
:10337C00A2FB03235B0903F0F0031C44D7F8FC30D9
:10338C0000223B677A67D7E91C8942464B46911865
:10339C00B9605B41FB60D7E90223414651183960A3
:1033AC0049464B417B604FF000024FF00003D7E9D8
:1033BC0000AB5946CB00514643EA51735146CA0003
:1033CC0010461946034642469B18BB664B460A46B6
:1033DC0042EB0303FB66D7F8F4305B6800223B66D4
:1033EC007A664FF000024FF00003D7E9188949467E
:1033FC008B00414643EA917341468A00D7E91A0192
:10340C00FCF7EEFF02460B460D4BA3FB02135B09C8
:10341C00642101FB03F3D31A1B013233084AA2FBCC
:10342C0003235B0903F00F02D7F8F4301B68224426
:10343C009A6000BF07F58077BD46BDE8B08F00BF2E
:10344C001F85EB5170B50D4D0D4C641BA41000265F
:10345C00A64209D10B4D0C4C00F020F8641BA410B3
:10346C000026A64205D170BD55F8043B984701369D
:10347C00EEE755F8043B98470136F2E7E0340A08CA
:10348C00E0340A08E0340A08E4340A08024403462B
:10349C00934200D1704703F8011BF9E7F8B500BF60
:1034AC00F8BC08BC9E467047F8B500BFF8BC08BC19
:0434BC009E46704771
:1034C00000000000000000000102030406070809D4
:0834D0000000000001020304EA
:0834D80044CFFF7F010000005A
:0434E000D1030A0802
:0434E400AD030A0822
:0C34E8000024F4001000000001000000AF
:04000005080A0DE5F3
:00000001FF
